:060000000A128A110F290B
:10000800F000030EF1000B1810200B191C20710EC4
:100018008300F00E700E090003138312061C850A74
:10002800051A8501861F8503051A30210B10080063
:1000380003138312FB3081000B11A00A2008323C05
:0C004800031D2928A001A20A08000800DE
:100200008A010A140F3982073F3406345B344F34B5
:1002100066346D347D3407347F346F343F343F218E
:1002200053215A21362167210313831224211629D1
:100230002208002188001D21080022080A3C031D15
:100240002329A30AA20108001821230800218700FE
:100250002A2108002308063C031D2F29A3010800BA
:1002600085010514851405158515080003138316EB
:10027000161496170313831206080B1008000317B1
:10028000831688018901031383168501870188017C
:10029000061486178113151495170313831285010D
:1002A000870188010800031383160F138F160F129E
:1002B0000F14080003138316811281110115811494
:1002C000011403138312FB3081000B1108008B17FC
:0A02D0008B150B108B160B110800A4
:04400E00D420FF3F7C
:00000001FF
